{
  "transactions": [
    {
      "hash": "0x426235dbf3966efc57fd910cd68801473fff86543e943ad613850d80d276b8d5",
      "transactionType": "CALL",
      "contractName": null,
      "contractAddress": "0x779877a7b0d9e8603169ddbd7836e478b4624789",
      "function": "transferAndCall(address,uint256,bytes)",
      "arguments": [
        "0x9DdfaCa8183c41ad55329BdeeD9F6A8d53168B1B",
        "3000000000000000000",
        "0xc080806d9c8e5f868b2ab035eda2c3a2a35f879b6da5311b7102a136f47814fc"
      ],
      "transaction": {
        "from": "0x43d7fcbf7c6b9912c65cf9810a626db872aa10f9",
        "to": "0x779877a7b0d9e8603169ddbd7836e478b4624789",
        "gas": "0x1c1ff",
        "value": "0x0",
        "input": "0x4000aea00000000000000000000000009ddfaca8183c41ad55329bdeed9f6a8d53168b1b00000000000000000000000000000000000000000000000029a2241af62c000000000000000000000000000000000000000000000000000000000000000000600000000000000000000000000000000000000000000000000000000000000020c080806d9c8e5f868b2ab035eda2c3a2a35f879b6da5311b7102a136f47814fc",
        "nonce": "0x3",
        "chainId": "0xaa36a7"
      },
      "additionalContracts": [],
      "isFixedGasLimit": false
    }
  ],
  "receipts": [
    {
      "status": "0x1",
      "cumulativeGasUsed": "0xe104b5",
      "logs": [
        {
          "address": "0x779877a7b0d9e8603169ddbd7836e478b4624789",
          "topics": [
            "0xddf252ad1be2c89b69c2b068fc378daa952ba7f163c4a11628f55a4df523b3ef",
            "0x00000000000000000000000043d7fcbf7c6b9912c65cf9810a626db872aa10f9",
            "0x0000000000000000000000009ddfaca8183c41ad55329bdeed9f6a8d53168b1b"
          ],
          "data": "0x00000000000000000000000000000000000000000000000029a2241af62c0000",
          "blockHash": "0x34665b34a00c9e1e23bfebc30f57e467683da9e1eeb322ba30567085cc7a1302",
          "blockNumber": "0x5d5fe9",
          "transactionHash": "0x426235dbf3966efc57fd910cd68801473fff86543e943ad613850d80d276b8d5",
          "transactionIndex": "0x53",
          "logIndex": "0xab",
          "removed": false
        },
        {
          "address": "0x779877a7b0d9e8603169ddbd7836e478b4624789",
          "topics": [
            "0xe19260aff97b920c7df27010903aeb9c8d2be5d310a2c67824cf3f15396e4c16",
            "0x00000000000000000000000043d7fcbf7c6b9912c65cf9810a626db872aa10f9",
            "0x0000000000000000000000009ddfaca8183c41ad55329bdeed9f6a8d53168b1b"
          ],
          "data": "0x00000000000000000000000000000000000000000000000029a2241af62c000000000000000000000000000000000000000000000000000000000000000000400000000000000000000000000000000000000000000000000000000000000020c080806d9c8e5f868b2ab035eda2c3a2a35f879b6da5311b7102a136f47814fc",
          "blockHash": "0x34665b34a00c9e1e23bfebc30f57e467683da9e1eeb322ba30567085cc7a1302",
          "blockNumber": "0x5d5fe9",
          "transactionHash": "0x426235dbf3966efc57fd910cd68801473fff86543e943ad613850d80d276b8d5",
          "transactionIndex": "0x53",
          "logIndex": "0xac",
          "removed": false
        },
        {
          "address": "0x9ddfaca8183c41ad55329bdeed9f6a8d53168b1b",
          "topics": [
            "0x1ced9348ff549fceab2ac57cd3a9de38edaaab274b725ee82c23e8fc8c4eec7a",
            "0xc080806d9c8e5f868b2ab035eda2c3a2a35f879b6da5311b7102a136f47814fc"
          ],
          "data": "0x000000000000000000000000000000000000000000000000000000000000000000000000000000000000000000000000000000000000000029a2241af62c0000",
          "blockHash": "0x34665b34a00c9e1e23bfebc30f57e467683da9e1eeb322ba30567085cc7a1302",
          "blockNumber": "0x5d5fe9",
          "transactionHash": "0x426235dbf3966efc57fd910cd68801473fff86543e943ad613850d80d276b8d5",
          "transactionIndex": "0x53",
          "logIndex": "0xad",
          "removed": false
        }
      ],
      "logsBloom": "0x00000004000000000000000000000000000000000020000001000000020000000000000000000000000000000000000000000000000000000000000000000000000000000000000010000008000000000000000000000000000020000020000008000000000000000000002000000000000000000000000000000010000040000000000000000000000000010000800000000020000000000000000000000000000000000000000000000000010000000040000080000001000004000000000000000002000000000000000000000000000000000000000100000000000000000010000000000000800000000000000000000000000000000000000000000000",
      "type": "0x2",
      "transactionHash": "0x426235dbf3966efc57fd910cd68801473fff86543e943ad613850d80d276b8d5",
      "transactionIndex": "0x53",
      "blockHash": "0x34665b34a00c9e1e23bfebc30f57e467683da9e1eeb322ba30567085cc7a1302",
      "blockNumber": "0x5d5fe9",
      "gasUsed": "0x133b1",
      "effectiveGasPrice": "0x2237ac",
      "from": "0x43d7fcbf7c6b9912c65cf9810a626db872aa10f9",
      "to": "0x779877a7b0d9e8603169ddbd7836e478b4624789",
      "contractAddress": null
    }
  ],
  "libraries": [],
  "pending": [],
  "returns": {},
  "timestamp": 1718534789,
  "chain": 11155111,
  "commit": "56b3424"
}